:020000040800F2
:1000000000500020BD130008051300080B13000862
:1000100011130008171300081D130008000000004A
:100020000000000000000000000000002313000892
:100030002F130008000000003B13000847130008BE
:10004000051400080514000805140008051400082C
:10005000051400080514000805140008051400081C
:10006000051400080514000805140008051400080C
:1000700005140008551300080514000805140008AD
:1000800005140008051400080514000805140008EC
:1000900005140008051400080514000805140008DC
:1000A0000514000869130008051400080514000869
:1000B00005140008051400087D1300080514000845
:1000C00005140008051400080514000805140008AC
:1000D000051400080514000805140008051400089C
:1000E0009113000805140008051400080000000022
:1000F0000000000000000000000000000000000000
:0C01000000000000000000005FF808F1A3
:10010C0010B5054C237833B9044B13B10448AFF345
:10011C0000800123237010BD1C0000200000000093
:10012C006041000808B5034B1BB103490348AFF30A
:10013C00008008BD00000000200000206041000885
:10014C0080B582B002AF002000F0C4FD1321102056
:10015C0000F00AFF054B012200920ECB044800F080
:10016C00DDFE00F0CFFD00BFBD4680BDD4F0000821
:10017C00A441000880B582B002AF002000F0AAFDB7
:10018C0017210E2000F0F0FE054B012200920ECB41
:10019C00044800F0C3FE00F0B5FD00BFBD4680BDB5
:1001AC00C8F00008AC41000880B582B002AF08214D
:1001BC00022000F0D9FE0D4B012200920ECB0C4810
:1001CC0000F0ACFE0821022000F0CEFE094B1B68AB
:1001DC00094A52F82300054B012200920ECB00F085
:1001EC009DFE00F08FFD00BFBD4680BDBCF0000839
:1001FC00B8410008440200200400002080B582B001
:10020C0002AF2021182000F0AFFE194B1B68194AD1
:10021C0082FB03129210DB17D31ADBB23033D8B245
:10022C00154B012200920ECB00F0E6FD104B1A6824
:10023C00104B83FB02139910D317C91A0B469B0062
:10024C000B445B00D11ACBB23033D8B20A4B01222B
:10025C0000920ECB00F0D0FD074B012200920ECB8A
:10026C00064800F05BFE00F04DFD00BFBD4680BDB2
:10027C000000002067666666D4F00008D0410008D4
:10028C0080B500AF144B1B78002B22D14FF47A7041
:10029C0000F06EF8114B1B78002B0ED001224FF49E
:1002AC0000710F4801F03FFE4FF4F35319460D480F
:1002BC0000F01CF8FFF744FF0CE0074B01221A700A
:1002CC0043F6BA431946084800F010F8FFF752FFFE
:1002DC0000E000BF80BD00BF4902002048020020A2
:1002EC0000080140A8950008EC58000880B582B0C1
:1002FC0000AF78603960094801F0CEFA7B682C3386
:10030C0019463B68064A054801F066FA054802F0B2
:10031C004DFF00BF0837BD4680BD00BF0002002066
:10032C00340000407001002080B582B000AF03465D
:10033C00FB800E4B1B6800225A620C4B1B68FA8820
:10034C00DA62FB88094AD360084802F02FFF00BF2D
:10035C00064B1B685A6AFB889A42F9D3034802F091
:10036C006FFF00BF0837BD4680BD00BFB80100203D
:10037C0080B582B000AF78600B4B1B686FF0010248
:10038C001A61094B1B6800225A62074B1B687A687A
:10039C00DA627B68044AD360034802F077FF00BF3F
:1003AC000837BD4680BD00BFE000002080B582B09C
:1003BC0000AF786001224FF40071094801F0B3FDE1
:1003CC007B689BB21846FFF7AFFF00224FF4007119
:1003DC00034801F0A8FD00BF0837BD4680BD00BF33
:1003EC000008014080B582B000AF78607B681B6864
:1003FC00104A934219D1002000F06CFCFFF7D4FE98
:10040C00FFF7FCFE0C4B1B7883F00103DBB2002BD7
:10041C0008D000224FF40071084801F084FD084B0D
:10042C0000221A70786802F083FF00BF0837BD46BF
:10043C0080BD00BF002C0140480200200008014094
:10044C004902002080B584B000AF0346FB8001F068
:10045C002DF8B8606F4B1B68BA68D31AC72B40F2E3
:10046C00D1806C4ABB6813606B4B1B78002B40F03F
:10047C00CB80FB88B3F5005F40F09880674B1B780E
:10048C0083F00103DBB2002B00F08D80644B1B6802
:10049C00022B59D0022B00F3BA80002B02D0012B77
:1004AC0049D0B4E002215F4801F055FD3220FFF73E
:1004BC007DFF41F2187319465B48FFF717FF0221C5
:1004CC00584801F048FD594B1B68013B574A1360D3
:1004DC00FFF794FE554B1B68002B40F097804F4B59
:1004EC0001221A70FFF7CCFE90E002214D4801F07A
:1004FC0032FD3220FFF75AFF41F2187319464A4871
:10050C00FFF7F4FE0221474801F025FD3220FFF7EA
:10051C000BFF464B1B68013B444A1360FFF76EFE12
:10052C00424B1B68002B06D13C4B01221A70FFF783
:10053C00A7FE00BF6BE04FF400513D4801F0DCFC1E
:10054C000346012BD1D062E00023FB6027E002219F
:10055C00344801F000FD3220FFF728FF41F21873F8
:10056C0019463148FFF7C2FE02212E4801F0F3FC78
:10057C003220FFF7D9FE2D4B1B68013B2B4A136031
:10058C00FFF73CFE294B1B68002B05D1234B0122A6
:10059C001A70FFF775FE3AE0FB680133FB60FB68ED
:1005AC00022BD4DD33E0FFF76BFE30E0FB88B3F5B4
:1005BC00805F14D11A4B1B680133194A1360184B16
:1005CC001B68022B02DD164B00221A6041F29E437F
:1005DC0019461848FFF78AFEFFF7E6FD17E0FB887F
:1005EC00B3F5004F0CD1114B1B681D2B0FDC0F4BBF
:1005FC001E221A60094B00221A70FFF741FE06E01A
:10060C0000BF04E000BF02E000BF00E000BF1037F5
:10061C00BD4680BD4C02002049020020480200204B
:10062C004402002000080140D441000800000020D2
:10063C00000C014008B4000880B500AF00F0DEFEED
:10064C0000F01AF800F03AFA00F01AFA00F0ACF8E0
:10065C0000F0FCF800F072F900F078F800F0C2F944
:10066C0000F046F800F0CCFA002000F033FBFFF766
:10067C009BFDFFF7C3FDFEE780B590B000AF07F11F
:10068C00180328220021184603F038FD3B1D0022D8
:10069C001A605A609A60DA601A610223BB61012306
:1006AC00BB621023FB6200237B6307F1180318461F
:1006BC0002F02EF90346002B01D000F063FA0F2351
:1006CC007B600023BB600023FB604FF480633B61C5
:1006DC0000237B613B1D0021184602F09BFB034667
:1006EC00002B01D000F04EFA00BF4037BD4680BD54
:1006FC0080B500AF124B134A1A60114B124A5A6064
:10070C000F4B00229A600E4B0022DA600C4B4FF418
:10071C0080421A610A4B00225A61094B00229A61ED
:10072C00074B0022DA61064B00221A62044801F0E2
:10073C0043FC0346002B01D000F024FA00BF80BD1F
:10074C003800002000540040801A060080B500AF2D
:10075C00124B134A1A60114B124A5A600F4B00226B
:10076C009A600E4B0022DA600C4B4FF480421A61F7
:10077C000A4B00225A61094B00229A61074B002256
:10078C00DA61064B00221A62044801F015FC03469C
:10079C00002B01D000F0F6F900BF80BD8C000020CA
:1007AC0000580040801A060080B586B000AF07F1F3
:1007BC00080300221A605A609A60DA603B460022F5
:1007CC001A605A601F4B204A1A601E4B41F63F724A
:1007DC005A601C4B00229A601A4B40F2E732DA60E6
:1007EC00184B00221A61174B00225A61154B00223C
:1007FC009A61144802F08AFC0346002B01D000F0E9
:10080C00C1F94FF48053BB6007F1080319460D483A
:10081C0003F068F80346002B01D000F0B3F9002375
:10082C003B6000237B603B461946064803F0F6FB11
:10083C000346002B01D000F0A5F900BF1837BD46C8
:10084C0080BD00BFE0000020002C014080B58EB0C0
:10085C0000AF07F1280300221A605A609A60DA6030
:10086C0007F1200300221A605A603B1D00221A6017
:10087C005A609A60DA601A615A619A612E4B4FF095
:10088C0080421A602C4B00225A602B4B00229A603B
:10089C00294BFF22DA60284B00221A61264B0022DA
:1008AC009A61254802F032FC0346002B01D000F07F
:1008BC0069F94FF48053BB6207F1280319461E48AF
:1008CC0003F010F80346002B01D000F05BF91A4836
:1008DC0002F05CFD0346002B01D000F053F900231D
:1008EC003B6200237B6207F120031946124803F098
:1008FC0095FB0346002B01D000F044F960237B608C
:10090C000023BB600023FB6000237B613B1D0022A6
:10091C001946094802F024FF0346002B01D000F0D1
:10092C0031F90021044802F089FD034800F09EFCD7
:10093C0000BF3837BD4680BD2801002080B586B089
:10094C0000AF07F1080300221A605A609A60DA605F
:10095C003B4600221A605A60204B214A1A601F4BFA
:10096C0003225A601D4B00229A601C4B7C22DA60D9
:10097C001A4B00221A61194B00229A61174802F097
:10098C00C5FB0346002B01D000F0FCF84FF480535C
:10099C00BB6007F108031946104802F0A3FF034699
:1009AC00002B01D000F0EEF800233B6000237B60AD
:1009BC003B461946094803F031FB0346002B01D096
:1009CC0000F0E0F8054B1B68DA68044B1B6842F436
:1009DC008072DA6000BF1837BD4680BD7001002000
:1009EC000004004080B586B000AF07F10803002278
:1009FC001A605A609A60DA603B4600221A605A60AC
:100A0C001D4B1E4A1A601C4B41F63F725A601A4B22
:100A1C0000229A60184B40F2E732DA60164B002243
:100A2C001A61154B00229A61134802F06FFB0346C2
:100A3C00002B01D000F0A6F84FF48053BB6007F1F7
:100A4C00080319460C4802F04DFF0346002B01D059
:100A5C0000F098F800233B6000237B603B4619466E
:100A6C00054803F0DBFA0346002B01D000F08AF8AE
:100A7C0000BF1837BD4680BDB801002000080040FB
:100A8C0080B582B000AF0C4B5B690B4A43F001039D
:100A9C005361094B5B6903F001037B607B680022A7
:100AAC0000210D2000F007FE0D2000F020FE00BFFD
:100ABC000837BD4680BD00BF0010024080B588B02D
:100ACC0000AF07F1100300221A605A609A60DA60D6
:100ADC00284B9B69274A43F020039361254B9B6964
:100AEC0003F02003FB60FB68224B9B69214A43F017
:100AFC00040393611F4B9B6903F00403BB60BB6849
:100B0C001C4B9B691B4A43F008039361194B9B696F
:100B1C0003F008037B607B68002240F20221164838
:100B2C0001F001FA40F202233B6101237B610023B7
:100B3C00BB610223FB6107F1100319460E4801F05B
:100B4C0057F84FF430433B610C4B7B610223BB6184
:100B5C0007F1100319460A4801F04AF80022002157
:100B6C00282000F0A8FD282000F0C1FD00BF203790
:100B7C00BD4680BD0010024000080140000011106D
:100B8C00000C014080B400AF72B600BFFEE780B429
:100B9C0000AF00BFBD4680BC7047000080B586B07A
:100BAC0004AF0346FB714FF0FF3302930123019313
:100BBC00FB1D0093012300227821034801F040FB28
:100BCC0000BF0837BD4680BD3800002080B586B018
:100BDC0004AF786039603B689BB24FF0FF320292F1
:100BEC0001937B680093012340227821034801F094
:100BFC0027FB00BF0837BD4680BD00BF3800002072
:100C0C0080B500AFFFF7C3FF642000F059FC002053
:100C1C0000F0D6F92020FFF7C1FF0020FFF7BEFF40
:100C2C00B020FFF7BBFFC820FFF7B8FF0020FFF78D
:100C3C00B5FF1020FFF7B2FF4020FFF7AFFFFF20FA
:100C4C0000F0AAF9A120FFF7A9FFA620FFF7A6FF45
:100C5C00A820FFF7A3FF3F20FFF7A0FFA420FFF77A
:100C6C009DFFD320FFF79AFF0020FFF797FFD520B9
:100C7C00FFF794FFF020FFF791FFD920FFF78EFFCD
:100C8C002220FFF78BFFDA20FFF788FF1220FFF7F7
:100C9C0085FFDB20FFF782FF2020FFF77FFF8D20F1
:100CAC00FFF77CFF1420FFF779FF012000F088F993
:100CBC00002000F00FF800F025F8054B00221A80F8
:100CCC00034B00225A80024B01221A7100BF80BDD7
:100CDC005006002080B582B000AF0346FB71FB7953
:100CEC00002B01D1002300E0FF234FF48062194652
:100CFC00034803F003FA00BF0837BD4680BD00BFB0
:100D0C005002002080B582B000AF0023FB7116E0CA
:100D1C00FB79503BDBB21846FFF740FF0020FFF792
:100D2C003DFF1020FFF73AFFFB79DB01084A134423
:100D3C0080211846FFF74AFFFB790133FB71FB79E1
:100D4C00072BE5D900BF00BF0837BD4680BD00BFEB
:100D5C005002002080B483B000AF0346FB710B46F9
:100D6C00BB7113467B7197F90730002B3DDBBB79C8
:100D7C003F2B3AD87B79012B1AD1FA79BB79DB0856
:100D8C00D8B20346DB0113441A4AD35C5AB2BB797E
:100D9C0003F00703012101FA03F35BB2134359B2C9
:100DAC00FA790346DB011344C9B2124AD1541DE04F
:100DBC00FA79BB79DB08D8B20346DB0113440D4A40
:100DCC00D35C5AB2BB7903F00703012101FA03F398
:100DDC005BB2DB435BB2134059B2FA790346DB01D9
:100DEC001344C9B2034AD15400E000BF0C37BD46CE
:100DFC0080BC70475002002090B589B000AF04460B
:100E0C00384680E80E002346FB73FB7B1F2B02D970
:100E1C00FB7B7E2B01D9002379E0BB68002B05D02E
:100E2C00BA68FB7B203B13441B7800E03B78FB75D6
:100E3C00394B1B881A46FB7D1344802B06DC364B42
:100E4C005B881A467B781344402B01DD00235EE05F
:100E5C000023FB614DE07A68FB7B203B797801FB3A
:100E6C0003F31946FB690B445B0013441B883B617D
:100E7C000023BB6136E03A69BB6902FA03F303F461
:100E8C000043002B13D0244B1B88DAB2BB69DBB2B6
:100E9C001344D8B2204B5B88DAB2FB69DBB2134443
:100EAC00DBB297F830201946FFF754FF17E01A4BC6
:100EBC001B88DAB2BB69DBB21344D8B2164B5B8821
:100ECC00DAB2FB69DBB21344D9B297F83030002B9D
:100EDC000CBF01230023DBB21A46FFF73BFFBB69B3
:100EEC000133BB61FB7DBA699A42C4D3FB69013300
:100EFC00FB617B781A46FB699342ACD3064B1A888C
:100F0C00FB7D9BB213449AB2034B1A80FB7B1846B1
:100F1C002437BD4690BD00BF5006002080B586B07A
:100F2C0002AFF860384680E80E0013E0FB681878D2
:100F3C003B7E00933B460ECBFFF75EFF03461A4603
:100F4C00FB681B789A4202D0FB681B7808E0FB68B0
:100F5C000133FB60FB681B78002BE7D1FB681B7827
:100F6C0018461037BD4680BD80B483B000AF034631
:100F7C000A46FB711346BB71FB799AB2054B1A807A
:100F8C00BB799AB2034B5A8000BF0C37BD4680BC6C
:100F9C00704700BF5006002080B584B000AF0346F8
:100FAC00FB718123FB73FB7B1846FFF7F7FDFB7985
:100FBC001846FFF7F3FD00BF1037BD4680BD00009B
:100FCC0080B584B000AF0346FB71FB79002B05D0D4
:100FDC00AF23FB73084B01225A7104E0AE23FB7361
:100FEC00054B00225A71FB7B1846FFF7D7FD00BF5B
:100FFC001037BD4680BD00BF5006002080B485B0C0
:10100C0000AF154B9B69144A43F001039361124BDB
:10101C009B6903F00103BB60BB680F4BDB690E4A95
:10102C0043F08053D3610C4BDB6903F080537B603E
:10103C007B680A4B5B68FB60FB6823F0E063FB603A
:10104C00FB6843F00073FB60044AFB68536000BF0D
:10105C001437BD4680BC70470010024000000140B0
:10106C0080B58AB000AF786007F1180300221A60CF
:10107C005A609A60DA607B681B682B4A934224D1D1
:10108C002A4B9B69294A43F008039361274B9B69C0
:10109C0003F008037B617B69C023BB611223FB61F6
:1010AC0003237B6207F118031946214800F0A0FDC9
:1010BC001E4BDB691D4A43F40013D3611B4BDB69E8
:1010CC0003F400133B613B6929E07B681B68194AF8
:1010DC00934224D1154B9B69144A43F00803936146
:1010EC00124B9B6903F00803FB60FB684FF44063F1
:1010FC00BB611223FB6103237B6207F118031946C2
:10110C000B4800F075FD094BDB69084A43F480037A
:10111C00D361064BDB6903F48003BB60BB6800BF83
:10112C002837BD4680BD00BF00540040001002406F
:10113C00000C01400058004080B586B000AF7860CC
:10114C007B681B68434A934214D1434B9B69424AC8
:10115C0043F400639361404B9B6903F400637B6130
:10116C007B6900220021192000F0A5FA192000F05B
:10117C00BEFA6AE07B681B68B3F1804F0CD1364B2A
:10118C00DB69354A43F00103D361334BDB6903F070
:10119C0001033B613B6958E07B681B682F4A934213
:1011AC003AD12D4BDB692C4A43F00203D3612A4B15
:1011BC00DB6903F00203FB60FB68294B294A1A60C8
:1011CC00274B10225A60264B00229A60244B802217
:1011DC00DA60234B4FF400721A61214B00225A61E2
:1011EC001F4B00229A611E4B4FF44052DA611C488F
:1011FC0000F098FA0346002B01D0FFF7C3FC7B6884
:10120C00174A1A63164A7B6853627B68144A1A623F
:10121C00134A7B68536218E07B681B68124A93423E
:10122C0013D10D4BDB690C4A43F00403D3610A4B19
:10123C00DB6903F00403BB60BB68002200211E20A5
:10124C0000F039FA1E2000F052FA00BF1837BD46E4
:10125C0080BD00BF002C0140001002400004004083
:10126C0000020020300002400008004080B588B029
:10127C0000AF786007F10C0300221A605A609A6084
:10128C00DA607B681B68B3F1804F2AD1174B9B69DE
:10129C00164A43F004039361144B9B6903F0040357
:1012AC00BB60BB684FF40043FB6002233B6102232D
:1012BC00BB6107F10C0319460D4800F099FC0D4B6E
:1012CC005B68FB61FB6923F44073FB61FB6943F0D2
:1012DC00E063FB61FB6943F48073FB61054AFB69C6
:1012EC00536000BF2037BD4680BD00BF00100240D8
:1012FC00000801400000014080B400AFFEE780B45C
:10130C0000AFFEE780B400AFFEE780B400AFFEE7AD
:10131C0080B400AFFEE780B400AF00BFBD4680BC18
:10132C00704780B400AF00BFBD4680BC704780B42E
:10133C0000AF00BFBD4680BC704780B500AF00F069
:10134C00A3F800BF80BD000080B500AF024800F0DC
:10135C001BFB00BF80BD00BF0002002080B500AFAA
:10136C00024802F00DF900BF80BD00BFE000002074
:10137C0080B500AF024802F003F900BF80BD00BF8A
:10138C00B801002080B500AF4FF4805000F0FCFD98
:10139C004FF4005000F0F8FD4FF4004000F0F4FD65
:1013AC0000BF80BD80B400AF00BFBD4680BC70479D
:1013BC00FFF7F8FF0B480C490C4A002302E0D45805
:1013CC00C4500433C4188C42F9D3094A094C002385
:1013DC0001E013600432A242FBD302F097FEFFF748
:1013EC002BF97047000000201C00002014F10008AD
:1013FC001C0000205C060020FEE7000080B500AF5A
:10140C00084B1B68074A43F010031360032000F0DD
:10141C0047F90F2000F008F8FFF7F0FD00231846FD
:10142C0080BD00BF0020024080B582B000AF786064
:10143C00124B1A68124B1B7819464FF47A73B3FB94
:10144C00F1F3B2FBF3F3184600F05FF90346002BFF
:10145C0001D001230EE07B680F2B0AD8002279689B
:10146C004FF0FF3000F027F9064A7B681360002329
:10147C0000E0012318460837BD4680BD100000204F
:10148C00180000201400002080B400AF054B1B781E
:10149C001A46054B1B681344034A136000BFBD4634
:1014AC0080BC7047180000205806002080B400AFA4
:1014BC00024B1B681846BD4680BC7047580600207E
:1014CC0080B584B000AF7860FFF7F0FFB8607B6840
:1014DC00FB60FB68B3F1FF3F05D00A4B1B781A4643
:1014EC00FB681344FB6000BFFFF7E0FF0246BB68DC
:1014FC00D31AFA689A42F7D800BF00BF1037BD461E
:10150C0080BD00BF1800002080B485B000AF7860AB
:10151C007B6803F00703FB600C4BDB68BB60BA68AD
:10152C004FF6FF031340BB60FB681A02BB68134302
:10153C0043F0BF6343F40033BB60044ABB68D36021
:10154C0000BF1437BD4680BC704700BF00ED00E003
:10155C0080B400AF044BDB681B0A03F0070318468A
:10156C00BD4680BC704700BF00ED00E080B483B086
:10157C0000AF0346FB7197F90730002B0BDBFB79AF
:10158C0003F01F02064997F907305B09012000FAA6
:10159C0002F241F8232000BF0C37BD4680BC7047D7
:1015AC0000E100E080B483B000AF03463960FB710A
:1015BC0097F90730002B0ADB3B68DAB20C4997F934
:1015CC0007301201D2B20B4483F800230AE03B68C7
:1015DC00DAB20849FB7903F00F03043B1201D2B2D3
:1015EC000B441A7600BF0C37BD4680BC704700BF59
:1015FC0000E100E000ED00E080B489B000AFF860DD
:10160C00B9607A60FB6803F00703FB61FB69C3F107
:10161C000703042B28BF0423BB61FB690433062B8F
:10162C0002D9FB69033B00E000237B614FF0FF32E2
:10163C00BB6902FA03F3DA43BB681A407B699A4030
:10164C004FF0FF317B6901FA03F3D9437B680B4000
:10165C00134318462437BD4680BC704780B582B012
:10166C0000AF78607B68013BB3F1807F01D301232D
:10167C000FE00A4A7B68013B53600F214FF0FF30AB
:10168C00FFF790FF054B00229A60044B07221A606B
:10169C00002318460837BD4680BD00BF10E000E0AF
:1016AC0080B582B000AF78607868FFF72DFF00BF7F
:1016BC000837BD4680BD80B586B000AF0346B96023
:1016CC007A60FB7300237B61FFF742FF78617A68D5
:1016DC00B9687869FFF790FF024697F90F30114609
:1016EC001846FFF75FFF00BF1837BD4680BD80B5B9
:1016FC0082B000AF0346FB7197F907301846FFF72D
:10170C0035FF00BF0837BD4680BD80B582B000AF45
:10171C0078607868FFF7A2FF034618460837BD4685
:10172C0080BD000080B485B000AF78600023FB6002
:10173C007B68002B01D1012343E07B681B681A46B0
:10174C00224B1344224AA2FB03231B099A007B68F9
:10175C001A647B681F4ADA637B68022283F82120B3
:10176C007B681B681B68FB60FB6823F47F5323F0CA
:10177C003003FB607B685A687B689B681A437B6804
:10178C00DB681A437B681B691A437B685B691A43E5
:10179C007B689B691A437B68DB691343FA681343C4
:1017AC00FB607B681B68FA681A607B6800229A638E
:1017BC007B68012283F821207B68002283F820209B
:1017CC00002318461437BD4680BC7047F8FFFDBF98
:1017DC00CDCCCCCC0000024080B586B000AFF86018
:1017EC00B9607A603B600023FB75FB6893F820308E
:1017FC00012B01D102234BE0FB68012283F820204E
:10180C00FB6893F82130DBB2012B3AD1FB68022242
:10181C0083F82120FB6800229A63FB681B681A6816
:10182C00FB681B6822F001021A603B687A68B96891
:10183C00F86800F0AFF9FB68DB6A002B08D0FB6896
:10184C001B681A68FB681B6842F00E021A600FE0F6
:10185C00FB681B681A68FB681B6822F004021A609C
:10186C00FB681B681A68FB681B6842F00A021A6066
:10187C00FB681B681A68FB681B6842F001021A605F
:10188C0005E0FB68002283F820200223FB75FB7D1A
:10189C0018461837BD4680BD80B584B000AF78605F
:1018AC000023FB737B6893F82130DBB2022B05D04D
:1018BC007B6804229A630123FB7351E07B681B68ED
:1018CC001A687B681B6822F00E021A607B681B6822
:1018DC001A687B681B6822F001021A607B681B681F
:1018EC00224A934229D07B681B68214A934222D01A
:1018FC007B681B681F4A93421AD07B681B681E4A80
:10190C00934212D07B681B681C4A93420AD07B68B6
:10191C001B681B4A934202D14FF480130EE04FF028
:10192C0080730BE04FF4803308E04FF4805305E0F4
:10193C004FF4807302E0102300E00123114A53603E
:10194C007B68012283F821207B68002283F8202009
:10195C007B685B6B002B03D07B685B6B786898476C
:10196C00FB7B18461037BD4680BD00BF0800024007
:10197C001C0002403000024044000240580002406B
:10198C006C0002400000024080B584B000AF78606B
:10199C007B68DB6B1B68FB607B681B681B68BB6030
:1019AC007B681B6C04229A40FB681340002B4FD0C1
:1019BC00BB6803F00403002B4AD07B681B681B68D0
:1019CC0003F02003002B07D17B681B681A687B6827
:1019DC001B6822F004021A607B681B68664A9342FB
:1019EC0029D07B681B68654A934222D07B681B68B0
:1019FC00634A93421AD07B681B68624A934212D0A6
:101A0C007B681B68604A93420AD07B681B685F4AFC
:101A1C00934202D14FF480030EE04FF080630BE051
:101A2C004FF4802308E04FF4804305E04FF48063CB
:101A3C0002E0402300E00423554A53607B68DB6AD4
:101A4C00002B00F094807B68DB6A786898478EE006
:101A5C007B681B6C02229A40FB681340002B56D00B
:101A6C00BB6803F00203002B51D07B681B681B681A
:101A7C0003F02003002B0BD17B681B681A687B6872
:101A8C001B6822F00A021A607B68012283F821206D
:101A9C007B681B68384A934229D07B681B68374A9D
:101AAC00934222D07B681B68354A93421AD07B68DC
:101ABC001B68344A934212D07B681B68324A9342AB
:101ACC000AD07B681B68314A934202D14FF4001351
:101ADC000EE04FF000730BE04FF4003308E04FF4CE
:101AEC00005305E04FF4007302E0202300E00223D2
:101AFC00274A53607B68002283F820207B689B6A0E
:101B0C00002B34D07B689B6A786898472FE07B6801
:101B1C001B6C08229A40FB681340002B28D0BB6832
:101B2C0003F00803002B23D07B681B681A687B68C2
:101B3C001B6822F00E021A607B681A6C7B68DB6BE8
:101B4C00012101FA02F25A607B6801229A637B68D8
:101B5C00012283F821207B68002283F820207B68F7
:101B6C001B6B002B04D07B681B6B7868984700BFFD
:101B7C0000BF1037BD4680BD080002401C0002406B
:101B8C003000024044000240580002406C00024009
:101B9C000000024080B485B000AFF860B9607A6094
:101BAC003B60FB681A6CFB68DB6B012101FA02F2EB
:101BBC005A60FB681B683A685A60FB685B68102BBC
:101BCC0008D1FB681B687A689A60FB681B68BA6866
:101BDC00DA6007E0FB681B68BA689A60FB681B68F0
:101BEC007A68DA6000BF1437BD4680BC70470000CD
:101BFC0080B48BB000AF7860396000237B62002327
:101C0C003B6269E101227B6A02FA03F3FB613B68E8
:101C1C001B68FA691340BB61BA69FB699A4240F0D0
:101C2C0058813B685B689A4A93425ED0984A9342CB
:101C3C0075D8984A934258D0964A93426FD8964A90
:101C4C00934252D0944A934269D8944A93424CD0CE
:101C5C00924A934263D8924A934246D0904A934216
:101C6C005DD8122B2AD8122B59D801A252F823F086
:101C7C00F71C0008D11C0008E31C0008251D0008F7
:101C8C002B1D00082B1D00082B1D00082B1D000808
:101C9C002B1D00082B1D00082B1D00082B1D0008F8
:101CAC002B1D00082B1D00082B1D00082B1D0008E8
:101CBC002B1D0008D91C0008ED1C0008794A934222
:101CCC0013D02CE03B68DB683B6229E03B68DB68A7
:101CDC0004333B6224E03B68DB6808333B621FE063
:101CEC003B68DB680C333B621AE03B689B68002B5B
:101CFC0002D104233B6213E03B689B68012B05D1A6
:101D0C0008233B627B68FA691A6109E008233B628D
:101D1C007B68FA695A6103E000233B6200E000BF74
:101D2C00BB69FF2B01D87B6801E07B6804337B61C6
:101D3C00BB69FF2B02D87B6A9B0002E07B6A083BE5
:101D4C009B003B617B691A680F213B6901FA03F325
:101D5C00DB431A40396A3B6901FA03F31A437B6986
:101D6C001A603B685B6803F08053002B00F0B18075
:101D7C004D4B9B694C4A43F0010393614A4B9B6961
:101D8C0003F00103BB60BB68484A7B6A9B080233C3
:101D9C0052F82330FB607B6A03F003039B000F2295
:101DAC0002FA03F3DB43FA681340FB607B68404A9A
:101DBC00934213D07B683F4A93420DD07B683E4AD6
:101DCC00934207D07B683D4A934201D1032306E03E
:101DDC00042304E0022302E0012300E000237A6ADA
:101DEC0002F0030292009340FA681343FB602F4900
:101DFC007B6A9B080233FA6841F823203B685B68D6
:101E0C0003F48013002B06D02D4B9A682C49BB6928
:101E1C0013438B6006E02A4B9A68BB69DB43284965
:101E2C0013408B603B685B6803F40013002B06D0F7
:101E3C00234BDA682249BB691343CB6006E0204B85
:101E4C00DA68BB69DB431E491340CB603B685B68B7
:101E5C0003F40033002B06D0194B5A681849BB69A0
:101E6C0013434B6006E0164B5A68BB69DB431449BD
:101E7C0013404B603B685B6803F48033002B21D02C
:101E8C000F4B1A680E49BB6913430B6021E000BF6E
:101E9C000000321000003110000022100000211050
:101EAC000000121000001110001002400000014050
:101EBC0000080140000C01400010014000140140DA
:101ECC00000401400B4B1A68BB69DB430949134002
:101EDC000B607B6A01337B623B681A687B6A22FA6F
:101EEC0003F3002B7FF48EAE00BF00BF2C37BD4632
:101EFC0080BC70470004014080B485B000AF7860AE
:101F0C000B467B807B689A687B881340002B02D041
:101F1C000123FB7301E00023FB73FB7B1846143792
:101F2C00BD4680BC704780B483B000AF78600B4670
:101F3C007B8013467B707B78002B03D07A887B6880
:101F4C001A6103E07B881A047B681A6100BF0C37A6
:101F5C00BD4680BC704780B485B000AF78600B463E
:101F6C007B807B68DB68FB607A88FB6813401A0413
:101F7C00FB68D9437B880B401A437B681A6100BF0E
:101F8C001437BD4680BC704780B582B000AF0346A5
:101F9C00FB80084B5A69FB881340002B06D0054A7E
:101FAC00FB885361FB881846FEF74CFA00BF0837D4
:101FBC00BD4680BD0004014080B584B000AF7860A0
:101FCC007B68002B01D101232BE17B6893F83D301A
:101FDC00DBB2002B06D17B68002283F83C207868AA
:101FEC00FFF73EF87B68242283F83D207B681B6852
:101FFC001A687B681B6822F001021A607B681B68F8
:10200C001A687B681B6842F400421A607B681B6884
:10201C001A687B681B6822F400421A6001F044F8CD
:10202C00F8607B685B68814A934207D8FB68804AFA
:10203C00934294BF01230023DBB206E0FB687D4A88
:10204C00934294BF01230023DBB2002B01D0012368
:10205C00E7E0FB68784AA2FB03239B0CBB607B6820
:10206C001B685B6823F03F017B681B68BA680A43F6
:10207C005A607B681B681B6A23F03F017B685B68B6
:10208C006A4A934202D8BB68013309E0BB684FF43B
:10209C00967202FB03F3694AA2FB03239B090133EB
:1020AC007A6812680B4313627B681B68DB6923F444
:1020BC004F4222F0FF027B685B685C498B4219D867
:1020CC00FB68591E7B685B685B00B1FBF3F3591C22
:1020DC0040F6FC730B40002B0AD0FB68591E7B6842
:1020EC005B685B00B1FBF3F30133C3F30B0351E00B
:1020FC0004234FE07B689B68002B11D1FB68581EB2
:10210C007B6859680B465B000B44B0FBF3F301335F
:10211C00C3F30B03002B0CBF01230023DBB212E033
:10212C00FB68581E7B6859680B469B000B44990052
:10213C000B44B0FBF3F30133C3F30B03002B0CBFC5
:10214C0001230023DBB2002B01D0012322E07B68AA
:10215C009B68002B0ED1FB68581E7B6859680B4698
:10216C005B000B44B0FBF3F30133C3F30B0343F4F9
:10217C0000430FE0FB68581E7B6859680B469B00B8
:10218C000B4499000B44B0FBF3F30133C3F30B0383
:10219C0043F44043796809681343CB617B681B683F
:1021AC001B6823F0C0017B68DA697B681B6A1A43E1
:1021BC007B681B680A431A607B681B689B6823F466
:1021CC00034323F0FF037A6811697A68D2681143DC
:1021DC007A6812680B4393607B681B68DB6823F09A
:1021EC00FF017B685A697B689B691A437B681B6893
:1021FC000A43DA607B681B681A687B681B6842F0CC
:10220C0001021A607B6800221A647B68202283F822
:10221C003D207B6800221A637B68002283F83E20F5
:10222C00002318461037BD4680BD00BFA0860100B4
:10223C007F841E00FF083D0083DE1B43D34D6210DC
:10224C0080B588B002AFF860084611461A460346BE
:10225C007B810B463B811346FB80FFF727F97861A6
:10226C00FB6893F83D30DBB2202B40F0D9807B69C2
:10227C000093192301226D49F86800F071F90346A7
:10228C00002B01D00223CCE0FB6893F83C30012BEF
:10229C0001D10223C5E0FB68012283F83C20FB68D6
:1022AC001B681B6803F00103012B07D0FB681B683C
:1022BC001A68FB681B6842F001021A60FB681B6815
:1022CC001A68FB681B6822F400621A60FB68212202
:1022DC0083F83D20FB68402283F83E20FB680022F7
:1022EC001A64FB683A6A5A62FB68BA8C5A85FB68B6
:1022FC005B8D9AB2FB681A85FB684D4ADA62F888E6
:10230C003A8979897B690193BB6A00930346F86823
:10231C0000F090F80346002B52D0012381E07A693B
:10232C00B96AF86800F036FA0346002B0DD0FB684A
:10233C001B6C042B07D1FB681B681A68FB681B68B5
:10234C0042F400721A6001236BE0FB685B6A1A7836
:10235C00FB681B681A61FB685B6A5A1CFB685A6253
:10236C00FB681B8D013B9AB2FB681A85FB685B8D81
:10237C009BB2013B9AB2FB685A85FB681B685B6990
:10238C0003F00403042B1BD1FB681B8D002B17D00F
:10239C00FB685B6A1A78FB681B681A61FB685B6AEE
:1023AC005A1CFB685A62FB681B8D013B9AB2FB6896
:1023BC001A85FB685B8D9BB2013B9AB2FB685A8510
:1023CC00FB681B8D002BAAD17A69B96AF86800F0FA
:1023DC0029FA0346002B0DD0FB681B6C042B07D18C
:1023EC00FB681B681A68FB681B6842F400721A6071
:1023FC00012316E0FB681B681A68FB681B6842F433
:10240C0000721A60FB68202283F83D20FB680022D2
:10241C0083F83E20FB68002283F83C20002300E078
:10242C00022318461837BD4680BD00BF02001000BD
:10243C000000FFFF80B588B002AFF8600846114677
:10244C001A4603467B810B463B811346FB80FB6897
:10245C001B681A68FB681B6842F480721A607B6AFE
:10246C0000933B6A00224FF00111F86800F078F8F5
:10247C000346002B0DD0FB681B681B6803F48073AC
:10248C00B3F5807F03D1FB684FF400721A64032309
:10249C005FE07B89DBB21A46FB681B6802F0FE0228
:1024AC001A617B6A3A6A2D49F86800F0D3F8034642
:1024BC00002B01D001234CE000237B61FB681B68DF
:1024CC005B697B61FB681B689B697B617B697A6AD2
:1024DC00396AF86800F05EF90346002B0DD0FB68F2
:1024EC001B6C042B07D1FB681B681A68FB681B6804
:1024FC0042F400721A6001232BE0FB88012B05D1FA
:10250C003B89DAB2FB681B681A6121E03B891B0A24
:10251C009BB2DAB2FB681B681A617A6A396AF8688E
:10252C0000F038F90346002B0DD0FB681B6C042B14
:10253C0007D1FB681B681A68FB681B6842F40072C1
:10254C001A60012305E03B89DAB2FB681B681A614B
:10255C00002318461837BD4680BD00BF020001009D
:10256C0080B584B000AFF860B9603B601346FB7176
:10257C0048E03B68B3F1FF3F44D0FEF797FF0246BB
:10258C00BB69D31A3A689A4202D33B68002B39D103
:10259C00BB681B0CDBB2012B0DD1FB681B685B69A4
:1025AC00DA43BB6813409BB2002B0CBF0123002302
:1025BC00DBB21A460CE0FB681B689B69DA43BB680C
:1025CC0013409BB2002B0CBF01230023DBB21A4635
:1025DC00FB799A4216D1FB6800221A63FB68202211
:1025EC0083F83D20FB68002283F83E20FB681B6CBF
:1025FC0043F02002FB681A64FB68002283F83C203D
:10260C00012323E0BB681B0CDBB2012B0DD1FB6853
:10261C001B685B69DA43BB6813409BB2002B0CBF91
:10262C0001230023DBB21A460CE0FB681B689B6994
:10263C00DA43BB6813409BB2002B0CBF0123002371
:10264C00DBB21A46FB799A4293D000231846103716
:10265C00BD4680BD80B584B000AFF860B9607A60CB
:10266C003B6071E0FB681B685B6903F48063B3F546
:10267C00806F23D1FB681B681A68FB681B6842F4E7
:10268C0000721A60FB681B686FF480625A61FB6809
:10269C0000221A63FB68202283F83D20FB6800228D
:1026AC0083F83E20FB681B6C43F00402FB681A6441
:1026BC00FB68002283F83C20012367E07B68B3F1C0
:1026CC00FF3F41D0FEF7F2FE02463B68D31A7A6810
:1026DC009A4202D37B68002B36D1BB681B0CDBB251
:1026EC00012B0CD1FB681B685B69DA43BB68134098
:1026FC009BB2002B14BF01230023DBB20BE0FB6861
:10270C001B689B69DA43BB6813409BB2002B14BF58
:10271C0001230023DBB2002B16D0FB6800221A63C6
:10272C00FB68202283F83D20FB68002283F83E20C2
:10273C00FB681B6C43F02002FB681A64FB680022E8
:10274C0083F83C20012321E0BB681B0CDBB2012B7E
:10275C000CD1FB681B685B69DA43BB6813409BB206
:10276C00002B14BF01230023DBB20BE0FB681B68BA
:10277C009B69DA43BB6813409BB2002B14BF012347
:10278C000023DBB2002B7FF46DAF0023184610370B
:10279C00BD4680BD80B584B000AFF860B9607A608A
:1027AC0034E0F86800F086F80346002B01D00123D2
:1027BC0034E0BB68B3F1FF3F28D0FEF777FE02464A
:1027CC007B68D31ABA689A4202D3BB68002B1DD11E
:1027DC00FB681B685B6903F08003802B16D0FB68D9
:1027EC0000221A63FB68202283F83D20FB6800223C
:1027FC0083F83E20FB681B6C43F02002FB681A64D4
:10280C00FB68002283F83C20012307E0FB681B686F
:10281C005B6903F08003802BC3D10023184610376B
:10282C00BD4680BD80B584B000AFF860B9607A60F9
:10283C0034E0F86800F03EF80346002B01D0012389
:10284C0034E0BB68B3F1FF3F28D0FEF72FFE024601
:10285C007B68D31ABA689A4202D3BB68002B1DD18D
:10286C00FB681B685B6903F00403042B16D0FB6840
:10287C0000221A63FB68202283F83D20FB680022AB
:10288C0083F83E20FB681B6C43F02002FB681A6443
:10289C00FB68002283F83C20012307E0FB681B68DF
:1028AC005B6903F00403042BC3D1002318461037D3
:1028BC00BD4680BD80B483B000AF78607B681B6878
:1028CC005B6903F48063B3F5806F1BD17B681B6875
:1028DC006FF480625A617B6800221A637B68202245
:1028EC0083F83D207B68002283F83E207B681B6CBC
:1028FC0043F004027B681A647B68002283F83C2056
:10290C00012300E0002318460C37BD4680BC7047FD
:10291C0080B586B000AF78607B68002B01D10123B5
:10292C0072E27B681B6803F00103002B00F08780C8
:10293C00924B5B6803F00C03042B0CD08F4B5B6841
:10294C0003F00C03082B12D18C4B5B6803F480331F
:10295C00B3F5803F0BD1894B1B6803F40033002B7C
:10296C006CD07B685B68002B68D101234CE27B68E0
:10297C005B68B3F5803F06D1804B1B687F4A43F4FC
:10298C00803313602EE07B685B68002B0CD17B4B93
:10299C001B687A4A23F480331360784B1B68774AA0
:1029AC0023F4802313601DE07B685B68B3F5A02FD4
:1029BC000CD1724B1B68714A43F4802313606F4B2C
:1029CC001B686E4A43F4803313600BE06B4B1B683F
:1029DC006A4A23F480331360684B1B68674A23F4FC
:1029EC00802313607B685B68002B13D0FEF75EFDC1
:1029FC00386108E0FEF75AFD02463B69D31A642B96
:102A0C0001D9032300E25D4B1B6803F40033002B58
:102A1C00F0D014E0FEF74AFD386108E0FEF746FD01
:102A2C0002463B69D31A642B01D90323ECE1534BC7
:102A3C001B6803F40033002BF0D100E000BF7B686F
:102A4C001B6803F00203002B63D04C4B5B6803F054
:102A5C000C03002B0BD0494B5B6803F00C03082BC9
:102A6C001CD1464B5B6803F48033002B16D1434BCF
:102A7C001B6803F00203002B05D07B681B69012B3C
:102A8C0001D00123C0E13D4B1B6823F0F8027B68A9
:102A9C005B69DB00394913430B603AE07B681B69C7
:102AAC00002B20D0364B01221A60FEF7FFFC386158
:102ABC0008E0FEF7FBFC02463B69D31A022B01D956
:102ACC000323A1E12D4B1B6803F00203002BF0D074
:102ADC002A4B1B6823F0F8027B685B69DB002749F3
:102AEC0013430B6015E0264B00221A60FEF7DEFC48
:102AFC00386108E0FEF7DAFC02463B69D31A022B78
:102B0C0001D9032380E11D4B1B6803F00203002B4A
:102B1C00F0D17B681B6803F00803002B3AD07B686C
:102B2C009B69002B19D0174B01221A60FEF7BEFCD3
:102B3C00386108E0FEF7BAFC02463B69D31A022B57
:102B4C0001D9032360E10D4B5B6A03F00203002BF8
:102B5C00F0D0012000F0BCFA1CE00A4B00221A60F5
:102B6C00FEF7A4FC38610FE0FEF7A0FC02463B69BF
:102B7C00D31A022B08D9032346E100BF00100240F0
:102B8C000000424280044242924B5B6A03F0020313
:102B9C00002BE9D17B681B6803F00403002B00F0C9
:102BAC00A6800023FB758B4BDB6903F08053002B55
:102BBC000DD1884BDB69874A43F08053D361854B39
:102BCC00DB6903F08053BB60BB680123FB75824B50
:102BDC001B6803F48073002B18D17F4B1B687E4A53
:102BEC0043F480731360FEF761FC386108E0FEF774
:102BFC005DFC02463B69D31A642B01D9032303E124
:102C0C00754B1B6803F48073002BF0D07B68DB687A
:102C1C00012B06D16F4B1B6A6E4A43F00103136202
:102C2C002DE07B68DB68002B0CD16A4B1B6A694A70
:102C3C0023F001031362674B1B6A664A23F00403FB
:102C4C0013621CE07B68DB68052B0CD1614B1B6AA3
:102C5C00604A43F0040313625E4B1B6A5D4A43F007
:102C6C00010313620BE05B4B1B6A5A4A23F001030E
:102C7C001362584B1B6A574A23F0040313627B6898
:102C8C00DB68002B15D0FEF711FC38610AE0FEF76B
:102C9C000DFC02463B69D31A41F28832934201D9AA
:102CAC000323B1E04B4B1B6A03F00203002BEED065
:102CBC0014E0FEF7FBFB38610AE0FEF7F7FB024677
:102CCC003B69D31A41F28832934201D903239BE02A
:102CDC00404B1B6A03F00203002BEED1FB7D012B52
:102CEC0005D13C4BDB693B4A23F08053D3617B68B5
:102CFC00DB69002B00F08780364B5B6803F00C031C
:102D0C00082B61D07B68DB69022B46D1334B002248
:102D1C001A60FEF7CBFB386108E0FEF7C7FB0246F2
:102D2C003B69D31A022B01D903236DE0294B1B6895
:102D3C0003F00073002BF0D17B681B6AB3F5803F66
:102D4C0008D1244B5B6823F400327B689B682149D3
:102D5C0013434B601F4B5B6823F474127B68196A36
:102D6C007B685B6A0B431B4913434B601B4B012273
:102D7C001A60FEF79BFB386108E0FEF797FB0246F2
:102D8C003B69D31A022B01D903233DE0114B1B687D
:102D9C0003F00073002BF0D035E0104B00221A60CA
:102DAC00FEF784FB386108E0FEF780FB02463B69C6
:102DBC00D31A022B01D9032326E0064B1B6803F020
:102DCC000073002BF0D11EE07B68DB69012B07D16F
:102DDC00012319E0001002400070004060004242E4
:102DEC000B4B5B68FB60FB6803F480327B681B6AEF
:102DFC009A4206D1FB6803F470127B685B6A9A42B4
:102E0C0001D0012300E0002318461837BD4680BDD1
:102E1C000010024080B584B000AF786039607B68E8
:102E2C00002B01D10123D0E06A4B1B6803F0070390
:102E3C003A689A4210D9674B1B6823F00702654920
:102E4C003B6813430B60634B1B6803F007033A6842
:102E5C009A4201D00123B8E07B681B6803F002039F
:102E6C00002B20D07B681B6803F00403002B05D0DB
:102E7C00594B5B68584A43F4E06353607B681B68AA
:102E8C0003F00803002B05D0534B5B68524A43F404
:102E9C0060535360504B5B6823F0F0027B689B6877
:102EAC004D4913434B607B681B6803F00103002BF7
:102EBC0040D07B685B68012B07D1474B1B6803F440
:102ECC000033002B15D101237FE07B685B68022B5C
:102EDC0007D1414B1B6803F00073002B09D1012370
:102EEC0073E03D4B1B6803F00203002B01D101235F
:102EFC006BE0394B5B6823F003027B685B683649F7
:102F0C0013434B60FEF7D2FAF8600AE0FEF7CEFAF4
:102F1C000246FB68D31A41F28832934201D903234B
:102F2C0053E02D4B5B6803F00C027B685B689B00E5
:102F3C009A42EBD1274B1B6803F007033A689A427D
:102F4C0010D2244B1B6823F0070222493B68134321
:102F5C000B60204B1B6803F007033A689A4201D0C0
:102F6C00012332E07B681B6803F00403002B08D0BC
:102F7C00194B5B6823F4E0627B68DB6816491343EA
:102F8C004B607B681B6803F00803002B09D0124BC5
:102F9C005B6823F460527B681B69DB000E491343AA
:102FAC004B6000F021F802460B4B5B681B0903F0E9
:102FBC000F030A49CB5C22FA03F3094A1360094B4D
:102FCC001B681846FEF730FA002318461037BD462A
:102FDC0080BD00BF0020024000100240E0F000085D
:102FEC00100000201400002080B487B000AF002334
:102FFC00FB600023BB6000237B6100237B6000230C
:10300C003B611E4B5B68FB60FB6803F00C03042BFD
:10301C0002D0082B03D027E0194B3B6127E0FB685B
:10302C009B0C03F00F03174AD35C7B60FB6803F423
:10303C008033002B10D0114B5B685B0C03F0010349
:10304C00114AD35CBB607B680D4A03FB02F2BB6880
:10305C00B2FBF3F37B6104E07B680C4A02FB03F3E5
:10306C007B617B693B6102E0094B3B6100BF3B69C3
:10307C0018461C37BD4680BC704700BF001002408C
:10308C00001BB700F8F0000808F1000800093D002B
:10309C0000127A0080B400AF024B1B681846BD4684
:1030AC0080BC70471000002080B500AFFFF7F2FF26
:1030BC000246054B5B681B0A03F007030349CB5C14
:1030CC0022FA03F3184680BD00100240F0F000080D
:1030DC0080B485B000AF78600A4B1B680A4AA2FB2B
:1030EC0003235B0A7A6802FB03F3FB6000BFFB68F7
:1030FC005A1EFA60002BF9D100BF00BF1437BD4631
:10310C0080BC704710000020D34D621080B582B097
:10311C0000AF78607B68002B01D1012341E07B6814
:10312C0093F83D30DBB2002B06D17B68002283F88C
:10313C003C207868FEF700F87B68022283F83D207B
:10314C007B681A687B6804331946104600F0B6FC9D
:10315C007B68012283F846207B68012283F83E209D
:10316C007B68012283F83F207B68012283F8402092
:10317C007B68012283F841207B68012283F842207E
:10318C007B68012283F843207B68012283F844206A
:10319C007B68012283F845207B68012283F83D205F
:1031AC00002318460837BD4680BD000080B485B0AA
:1031BC0000AF78607B6893F83D30DBB2012B01D017
:1031CC00012332E07B68022283F83D207B681B6878
:1031DC00184A93420ED07B681B68B3F1804F09D01C
:1031EC007B681B68144A934204D07B681B68134AA3
:1031FC00934211D17B681B689B6803F00703FB604B
:10320C00FB68062B10D07B681B681A687B681B68F0
:10321C0042F001021A6007E07B681B681A687B6841
:10322C001B6842F001021A60002318461437BD4691
:10323C0080BC7047002C0140000400400008004096
:10324C0080B483B000AF78607B681B681A6A41F267
:10325C0011131340002B0FD17B681B681A6A40F2C4
:10326C0044431340002B07D17B681B681A687B68AA
:10327C001B6822F001021A607B68012283F83D2052
:10328C00002318460C37BD4680BC704780B485B00F
:10329C0000AF78607B6893F83D30DBB2012B01D036
:1032AC0001233AE07B68022283F83D207B681B688F
:1032BC00DA687B681B6842F00102DA607B681B6885
:1032CC00184A93420ED07B681B68B3F1804F09D02B
:1032DC007B681B68144A934204D07B681B68134AB2
:1032EC00934211D17B681B689B6803F00703FB605A
:1032FC00FB68062B10D07B681B681A687B681B6800
:10330C0042F001021A6007E07B681B681A687B6850
:10331C001B6842F001021A60002318461437BD46A0
:10332C0080BC7047002C01400004004000080040A5
:10333C0080B483B000AF78607B681B68DA687B6808
:10334C001B6822F00102DA607B681B681A6A41F282
:10335C0011131340002B0FD17B681B681A6A40F2C3
:10336C0044431340002B07D17B681B681A687B68A9
:10337C001B6822F001021A607B68012283F83D2051
:10338C00002318460C37BD4680BC704780B582B010
:10339C0000AF78607B68002B01D1012341E07B6892
:1033AC0093F83D30DBB2002B06D17B68002283F80A
:1033BC003C20786800F039F87B68022283F83D20C5
:1033CC007B681A687B6804331946104600F076FB5C
:1033DC007B68012283F846207B68012283F83E201B
:1033EC007B68012283F83F207B68012283F8402010
:1033FC007B68012283F841207B68012283F84220FC
:10340C007B68012283F843207B68012283F84420E7
:10341C007B68012283F845207B68012283F83D20DC
:10342C00002318460837BD4680BD80B483B000AF7A
:10343C00786000BF0C37BD4680BC704780B584B047
:10344C0000AF786039603B68002B09D17B6893F83A
:10345C003E30DBB2012B14BF01230023DBB222E090
:10346C003B68042B09D17B6893F83F30DBB2012B0E
:10347C0014BF01230023DBB215E03B68082B09D1F4
:10348C007B6893F84030DBB2012B14BF012300237F
:10349C00DBB208E07B6893F84130DBB2012B14BF40
:1034AC0001230023DBB2002B01D001235EE03B683B
:1034BC00002B04D17B68022283F83E2013E03B688A
:1034CC00042B04D17B68022283F83F200BE03B687D
:1034DC00082B04D17B68022283F8402003E07B6830
:1034EC00022283F841207B681B6801223968184648
:1034FC0000F070FD7B681B681E4A934207D17B6805
:10350C001B685A6C7B681B6842F400425A647B68E7
:10351C001B68184A93420ED07B681B68B3F1804F2E
:10352C0009D07B681B68144A934204D07B681B68E3
:10353C00124A934211D17B681B689B6803F0070306
:10354C00FB60FB68062B10D07B681B681A687B68D5
:10355C001B6842F001021A6007E07B681B681A685E
:10356C007B681B6842F001021A6000231846103772
:10357C00BD4680BD002C0140000400400008004006
:10358C0080B584B000AF78607B681B68DB68FB603B
:10359C007B681B681B69BB60BB6803F00203002BD4
:1035AC0020D0FB6803F00203002B1BD07B681B6848
:1035BC006FF002021A617B6801221A777B681B6824
:1035CC009B6903F00303002B03D0786800F05AFAD0
:1035DC0005E0786800F04DFA786800F05CFA7B68DA
:1035EC0000221A77BB6803F00403002B20D0FB6881
:1035FC0003F00403002B1BD07B681B686FF00402E4
:10360C001A617B6802221A777B681B689B6903F43A
:10361C004073002B03D0786800F034FA05E078682A
:10362C0000F027FA786800F036FA7B6800221A77E7
:10363C00BB6803F00803002B20D0FB6803F00803E1
:10364C00002B1BD07B681B686FF008021A617B682B
:10365C0004221A777B681B68DB6903F00303002BD9
:10366C0003D0786800F00EFA05E0786800F001FAF3
:10367C00786800F010FA7B6800221A77BB6803F0B8
:10368C001003002B20D0FB6803F01003002B1BD081
:10369C007B681B686FF010021A617B6808221A772E
:1036AC007B681B68DB6903F44073002B03D07868DC
:1036BC0000F0E8F905E0786800F0DBF9786800F0D4
:1036CC00EAF97B6800221A77BB6803F00103002B30
:1036DC000CD0FB6803F00103002B07D07B681B6840
:1036EC006FF001021A617868FCF77CFEBB6803F08E
:1036FC008003002B0CD0FB6803F08003002B07D059
:10370C007B681B686FF080021A61786800F0EDFC32
:10371C00BB6803F04003002B0CD0FB6803F04003A4
:10372C00002B07D07B681B686FF040021A61786829
:10373C0000F0BAF9BB6803F02003002B0CD0FB6837
:10374C0003F02003002B07D07B681B686FF020026E
:10375C001A61786800F0C0FC00BF1037BD4680BD10
:10376C0080B586B000AFF860B9607A600023FB7555
:10377C00FB6893F83C30012B01D10223AEE0FB68CF
:10378C00012283F83C207B680C2B00F29F8001A265
:10379C0052F823F0D5370008D9380008D93800087A
:1037AC00D938000815380008D9380008D93800086D
:1037BC00D938000857380008D9380008D93800081B
:1037CC00D938000897380008FB681B68B968184698
:1037DC0000F0E2F9FB681B689A69FB681B6842F011
:1037EC0008029A61FB681B689A69FB681B6822F0E7
:1037FC0004029A61FB681B689969BB681A69FB68CB
:10380C001B680A439A6164E0FB681B68B968184638
:10381C0000F028FAFB681B689A69FB681B6842F485
:10382C0000629A61FB681B689A69FB681B6822F44A
:10383C0080629A61FB681B689969BB681B691A02F4
:10384C00FB681B680A439A6143E0FB681B68B96814
:10385C00184600F071FAFB681B68DA69FB681B6894
:10386C0042F00802DA61FB681B68DA69FB681B68C6
:10387C0022F00402DA61FB681B68D969BB681A691B
:10388C00FB681B680A43DA6123E0FB681B68B968B4
:10389C00184600F0BBFAFB681B68DA69FB681B680A
:1038AC0042F40062DA61FB681B68DA69FB681B682A
:1038BC0022F48062DA61FB681B68D969BB681B69FA
:1038CC001A02FB681B680A43DA6102E00123FB75EC
:1038DC0000BFFB68002283F83C20FB7D184618379C
:1038EC00BD4680BD80B584B000AF786039600023E0
:1038FC00FB737B6893F83C30012B01D10223B4E0BD
:10390C007B68012283F83C207B68022283F83D20EF
:10391C007B681B689B68BB60BB6823F07703BB604C
:10392C00BB6823F47F43BB607B681B68BA689A60F2
:10393C003B681B68B3F5005F3ED0B3F5005F00F247
:10394C008780B3F5805F00F08680B3F5805F7FD809
:10395C00702B1AD0702B7BD8602B50D0602B77D863
:10396C00502B3CD0502B73D8402B58D0402B6FD8B9
:10397C00302B64D0302B6BD8202B60D0202B67D809
:10398C00002B5CD0102B5AD062E07B6818683B6827
:10399C0099683B685A683B68DB6800F0FCFA7B6806
:1039AC001B689B68BB60BB6843F07703BB607B689C
:1039BC001B68BA689A604FE07B6818683B68996826
:1039CC003B685A683B68DB6800F0E5FA7B681B686B
:1039DC009A687B681B6842F480429A603CE07B6882
:1039EC0018683B6859683B68DB681A4600F05CFA5B
:1039FC007B681B685021184600F0B3FA2CE07B68FA
:103A0C0018683B6859683B68DB681A4600F07AFA1C
:103A1C007B681B686021184600F0A3FA1CE07B68E9
:103A2C0018683B6859683B68DB681A4600F03CFA3A
:103A3C007B681B684021184600F093FA0CE07B6809
:103A4C001A683B681B681946104600F08AFA03E0B6
:103A5C000123FB7300E000BF7B68012283F83D204B
:103A6C007B68002283F83C20FB7B18461037BD4650
:103A7C0080BD80B483B000AF786000BF0C37BD460A
:103A8C0080BC704780B483B000AF786000BF0C3747
:103A9C00BD4680BC704780B483B000AF786000BF77
:103AAC000C37BD4680BC704780B483B000AF7860E3
:103ABC0000BF0C37BD4680BC7047000080B485B099
:103ACC0000AF786039607B681B68FB607B682F4AAD
:103ADC0093420BD07B68B3F1804F07D07B682C4AA4
:103AEC00934203D07B682B4A934208D1FB6823F0A6
:103AFC007003FB603B685B68FA681343FB607B6890
:103B0C00224A93420BD07B68B3F1804F07D07B687D
:103B1C001F4A934203D07B681E4A934208D1FB682C
:103B2C0023F44073FB603B68DB68FA681343FB606B
:103B3C00FB6823F080023B685B691343FB607B6886
:103B4C00FA681A603B689A687B68DA623B681A68A4
:103B5C007B689A627B680D4A934203D13B681A6971
:103B6C007B681A637B6801225A617B681B6903F0CE
:103B7C000103002B05D07B681B6923F001027B68D5
:103B8C001A6100BF1437BD4680BC7047002C014041
:103B9C00000400400008004080B487B000AF78609B
:103BAC0039607B681B6A7B617B681B6A23F00102AE
:103BBC007B681A627B685B683B617B689B69FB6016
:103BCC00FB6823F07003FB60FB6823F00303FB60CE
:103BDC003B681B68FA681343FB607B6923F00203A4
:103BEC007B613B689B687A6913437B617B681C4AE9
:103BFC0093420CD17B6923F008037B613B68DB6843
:103C0C007A6913437B617B6923F004037B617B68D6
:103C1C00134A934211D13B6923F480733B613B6996
:103C2C0023F400733B613B685B693A6913433B6166
:103C3C003B689B693A6913433B617B683A695A60FC
:103C4C007B68FA689A613B685A687B685A637B6840
:103C5C007A691A6200BF1C37BD4680BC704700BF32
:103C6C00002C014080B487B000AF786039607B686D
:103C7C001B6A7B617B681B6A23F010027B681A62EB
:103C8C007B685B683B617B689B69FB60FB6823F42A
:103C9C00E043FB60FB6823F44073FB603B681B68EC
:103CAC001B02FA681343FB607B6923F020037B61E2
:103CBC003B689B681B017A6913437B617B681D4AD7
:103CCC0093420DD17B6923F080037B613B68DB68F9
:103CDC001B017A6913437B617B6923F040037B6191
:103CEC007B68144A934213D13B6923F480633B6194
:103CFC003B6923F400633B613B685B699B003A6959
:103D0C0013433B613B689B699B003A6913433B61DE
:103D1C007B683A695A607B68FA689A613B685A68B2
:103D2C007B689A637B687A691A6200BF1C37BD4650
:103D3C0080BC7047002C014080B487B000AF786025
:103D4C0039607B681B6A7B617B681B6A23F4807219
:103D5C007B681A627B685B683B617B68DB69FB6034
:103D6C00FB6823F07003FB60FB6823F00303FB602C
:103D7C003B681B68FA681343FB607B6923F4007390
:103D8C007B613B689B681B027A6913437B617B6890
:103D9C001D4A93420DD17B6923F400637B613B6820
:103DAC00DB681B027A6913437B617B6923F48063B4
:103DBC007B617B68144A934213D13B6923F4805393
:103DCC003B613B6923F400533B613B685B691B011E
:103DDC003A6913433B613B689B691B013A69134386
:103DEC003B617B683A695A607B68FA68DA613B68C8
:103DFC005A687B68DA637B687A691A6200BF1C3781
:103E0C00BD4680BC704700BF002C014080B487B019
:103E1C0000AF786039607B681B6A3B617B681B6A0A
:103E2C0023F480527B681A627B685B687B617B68D9
:103E3C00DB69FB60FB6823F4E043FB60FB6823F465
:103E4C004073FB603B681B681B02FA681343FB6002
:103E5C003B6923F400533B613B689B681B033A6945
:103E6C0013433B617B680F4A934209D17B6923F46E
:103E7C0080437B613B685B699B017A6913437B617F
:103E8C007B687A695A607B68FA68DA613B685A68C1
:103E9C007B681A647B683A691A6200BF1C37BD469E
:103EAC0080BC7047002C014080B487B000AFF86034
:103EBC00B9607A60FB681B6A7B61FB681B6A23F044
:103ECC000102FB681A62FB689B693B613B6923F04A
:103EDC00F0033B617B681B013A6913433B617B69CF
:103EEC0023F00A037B617A69BB6813437B61FB682F
:103EFC003A699A61FB687A691A6200BF1C37BD4641
:103F0C0080BC704780B487B000AFF860B9607A604D
:103F1C00FB681B6A7B61FB681B6A23F01002FB6861
:103F2C001A62FB689B693B613B6923F470433B61FC
:103F3C007B681B033A6913433B617B6923F0A00345
:103F4C007B61BB681B017A6913437B61FB683A692F
:103F5C009A61FB687A691A6200BF1C37BD4680BC47
:103F6C00704780B485B000AF786039607B689B681F
:103F7C00FB60FB6823F07003FB603A68FB6813433B
:103F8C0043F00703FB607B68FA689A6000BF143744
:103F9C00BD4680BC704780B487B000AFF860B96094
:103FAC007A603B60FB689B687B617B6923F47F4391
:103FBC007B613B681A027B681A43BB6813437A69BE
:103FCC0013437B61FB687A699A6000BF1C37BD465E
:103FDC0080BC704780B487B000AFF860B9607A607D
:103FEC00BB6803F01F03012202FA03F37B61FB6839
:103FFC001A6A7B69DB431A40FB681A62FB681A6A0F
:10400C00BB6803F01F03796801FA03F31A43FB68DA
:10401C001A6200BF1C37BD4680BC704780B485B0A7
:10402C0000AF786039607B6893F83C30012B01D18C
:10403C00022346E07B68012283F83C207B68022245
:10404C0083F83D207B681B685B68FB607B681B68A2
:10405C009B68BB60FB6823F07003FB603B681B68CC
:10406C00FA681343FB607B681B68FA685A607B68CC
:10407C001B68164A93420ED07B681B68B3F1804FC5
:10408C0009D07B681B68124A934204D07B681B687A
:10409C00104A93420CD1BB6823F08003BB603B6891
:1040AC005B68BA681343BB607B681B68BA689A602C
:1040BC007B68012283F83D207B68002283F83C203A
:1040CC00002318461437BD4680BC7047002C0140B5
:1040DC00000400400008004080B483B000AF78605A
:1040EC0000BF0C37BD4680BC704780B483B000AFB6
:1040FC00786000BF0C37BD4680BC70470346024455
:10410C00934200D1704703F8011BF9E770B5002604
:10411C000C4D0D4C641BA410A64209D100F01AF8EA
:10412C0000260A4D0A4C641BA410A64205D170BD92
:10413C0055F8043B98470136EEE755F8043B984791
:10414C000136F2E70CF100080CF100080CF1000844
:10415C0010F10008F8B500BFF8BC08BC9E467047CB
:0C416C00F8B500BFF8BC08BC9E467047C8
:104178004D6F64653A2053696E676C652053686FAC
:10418800740000004D6F64653A204175746F00003B
:104198004D6F64653A2042757273740052454C4FF6
:1041A8004144000052454C4F4144494E47000000ED
:1041B80020202020202020202020202020202020F7
:1041C80020202020000000002F33300052494646AE
:1041D8001017000057415645666D74201000000006
:1041E80001000100803E0000803E00000100080040
:1041F800646174618416000080808080807F807F85
:104208008080807F807F80807F80808080807F80AA
:104218007F807F807F807F807F7F807F807F80809E
:10422800807F807F807F80807F807F807F80807F8D
:10423800807F807F807F807F80807F807F8080807C
:104248007F807F807F807F80807F807F80807F806D
:104258007F807F80807F807F807F807F80807F805D
:104268007F7F807F807F80807F807F80807F80804D
:104278007F807F807F807F8080807F80808080803B
:104288007F7F807F8080807F80807F7F7F80807F2E
:10429800808080807F8080807F808080807F807F1A
:1042A800807F80807F807F80807F807F807F807F0D
:1042B8007F807F80807F7F7F8080807F80807F80FD
:1042C800807F80807F7F807F80807F807F7F807FEE
:1042D8007F7F807F807F7F7F807F7F7F80807F80E0
:1042E8007F807F7F8080807F7F80807F7F80807FCE
:1042F8007F7F80807F80807F7F80807F807F807FBE
:104308007F807F8080807F80807F807F807F7F80AC
:10431800807F807F7F8080807F80807F7F80807F9C
:104328007F7F80807F7F80807F7F8080807F7F808D
:10433800807F7F7F80807F7F7F80807F7F8080807D
:104348007F8080807F7F80807F7F807F807F7F806D
:10435800807F7F7F807F7F7F80807F7F7F807F7F60
:104368007F80807F807F80807F7F80807F7F80804C
:104378007F7F8080807F7F7F807F7F7F807F807F3F
:104388007F80807F7F8080807F7F80807F7F80802C
:104398007F7F7F80807F7F80807F807F807F7F7F1F
:1043A8007F7F807F807F7F807F807F7F7F80807F0F
:1043B800807F807F80807F80807F7F807F7F8080FC
:1043C80080807F80807F7F80807F7F8080807F7FEC
:1043D800807F807F8080807F80808080807F7F80DA
:1043E8007F7F7F807F7F7F7F7F8080807F7F7F7FD1
:1043F8007F80807F807F7F80807F807F7F807F80BD
:10440800807F7F807F7F80807F80807F7F7F8080AC
:104418007F7F8080807F7F807F7F8080807F7F7F9D
:1044280080807F8080807F7F8080807F807F7F808A
:104438007F807F7F7F807F7F80807F7F808080807C
:10444800808080807F7F80807F807F7F7F7F7F7F6D
:104458007F80807F808080807F7F80808080808058
:10446800807F807F80808080807F7F7F807F7F804B
:10447800807F7F7F7F7F7F80807F8080807F807F3D
:104488007F807F8080807F7F80807F80807F807F2B
:104498007F7F80807F7F7F80807F7F807F7F807F1E
:1044A8007F8080807F7F7F7F807F807F807F807F0D
:1044B80080807F807F807F807F7F807F80807F7FFC
:1044C8007F7F7F807F807E807F817F807F817F80EC
:1044D8007F8180807F7F817D857F7A81837B836FE9
:1044E8007A929E4A63BC825562A9A9613D99BF68C8
:1044F8004484B39F484ABAC1493AA8C1763F6AC7BB
:10450800AC3357B6B6594E86C5892F72BB9B4E59E8
:1045180097BA753E80BB8C4E60A2A56B4A91AD7F61
:10452800506EAC9260579BA46F547BAB9251669EC1
:104538009D695B85A8994B5FA694605887936B5CCF
:104548006EA1855C70A39F716B84AF8765769E9220
:104558007168879F81617AA6826A6F90987C5A8A6F
:104568009F865F74A18A775F80AE81627F8CAE6F11
:10457800827D85706795998C596588885A5E85AC67
:104588006E6967A08C717086A3727C7AA58A747A2A
:104598009F90747D8698806C81968F737788947FBE
:1045A8006B898E85727D8C877C7384907E71838DF8
:1045B80081767181917D6E878C827B73908A73740A
:1045C8008A8C7871849083787799887479848AB989
:1045D8004C78A359AD569A85798B6D9572826C8308
:1045E8008C767A7D8A847A83848B7873868C8274BD
:1045F8007C8D837D7D80857F7C798F86787D818B9E
:104608007E75868E83738186897C77868789787E96
:104618008289787B8183837A8283827B7A89887A8C
:10462800817D89867D7D8488787E84847C76868178
:104638008082868481847F84827B6B7984877A8474
:104648007E8F7B82796071CCEEB7DAA5F9936FED36
:10465800FCBC467166672675F0B4F0DDC84245B308
:104668001347C2C27A26A9FFC1E8D9D8BF6E76B669
:10467800BE8F35645D0030243C0A1894AB7E9A8462
:10468800C2A6A5AD3A78A19A93948B948F8D899FF1
:1046980083795850444F6F5E38615A3E8DC6C66460
:1046A800681718490D0A15365064C03E103A0F476E
:1046B8002E03193784D753235925388A1242504379
:1046C800D1CE83A8C44D9EDC8A6B967A338B5B0A65
:1046D8005D2133063A88645A25352857695D7A582A
:1046E80071C3C17C3467292D4E98680A1800280CBC
:1046F8004E1D100031033A880A3B10CE7360572FC5
:1047080061158A39A0649F7F71D3B5F59CCD6FBEC2
:10471800E97E89A7E1075B7953BF4B8A55DEA41C64
:10472800A3DCAF998370FAD2E1DFE7F3DBF4E8FFAB
:104738009896D7EDE769F0B3C0FFE9F9F5B95D716F
:104748003190832A6CC7F5B7D1F2A8C18F798CBC98
:104758005DA2DAA9FFD1F8E9F6E0BFFF7B05149B5B
:104768005A3671A7EA9AE1EAFFDFBF5003066FE6FF
:104778009BFFE3F0EBF4ECA37924C966289C67C49B
:10478800FFF9FDE7DDDAE0FFE0FFA838A259A8A9A4
:104798001D2600ADEED1D96CB683A4BF669C5E61C0
:1047A800765951300D53A0949A684E33433B1621E5
:1047B800331A012A44241663424F78795613172C6A
:1047C800162610090A0119288433482D021C0017DF
:1047D800051514411E1E371816022463403C5C352B
:1047E800437A6C99D0969889795F736A5A211436FE
:1047F8000602013B072645536E8FEEA09AB58F8CB3
:104808005B1B14161B3B12305B464F3C3E3E444537
:10481800432A54734E3F213B5F6B8D9592789F746A
:1048280041480B155DC08BA6FEE3EFF7C37C7E57AE
:10483800233B3E44452B0C151E414D3629161B0EB5
:10484800101425576D6578611D0404030B070D10BE
:1048580050908BB4C38E5A37481B252E194B446D84
:1048680073655B43273B556E7668818058522308F1
:10487800354D422D1B20262645063B6892B5F6C5C8
:10488800BEF4A2905C4A0D260F023E5E7C65B6B867
:104898007290B93C34A800798F000036501AF6D3CC
:1048A8003932F67E005E085854391361780B596620
:1048B8003D56F26201D181211F2E0E131926322294
:1048C800E9CFF3A6287A2E11307B1B403A231F1814
:1048D800531A2978A69BA12B031C23120C19280C08
:1048E800000713411E484D457464224B394E6A3700
:1048F800633714172143605244533B18182D123163
:10490800694522384C4A4A5C7E6776A6C7A36B5332
:1049180062541800020A3A6E7DC7B0A3B7AF75801B
:10492800975D7891A8D0A28AB2A6C1D0B4DDECBBBD
:10493800D2CAC4A2858699A1B6F7E1D8E6DBCDBC78
:10494800BD8753869FB5D8FBCFEEEEF2F5AFB0B575
:10495800D4C7CF9186B6CAA691BACAD1DAB7A6E1AA
:10496800E9F6EFE9F7EADEC9B9D4C7E5DCAA9D891B
:1049780092A2A0838D866832529C9E91B3B5ADA356
:104988006F522932264F4B3B6B47625F4B64456C35
:10499800816D9A867CBBD39B815E534C435E7BA220
:1049A800878D7D7E9C82587B75626899F2D8C8E1B4
:1049B800F3B87F76664036327087A68D94BFC2D42E
:1049C800AFC39E78666D2821302D302A423E302DA7
:1049D800454D57647A7241314A3E3D283A4C6273DC
:1049E8006CA49793A3A1AA7F6D59433A2F1C27451E
:1049F8005A4D4A5F43502A1A173D4D4E6D84969979
:104A0800CBD6EBEFF7ECEBF5E6F0EEF6F7DFDFE20F
:104A1800E7E5E8E9D6CEE3F4F2FFE9E5D5DCC9D16C
:104A2800D5989DAFAE9296B7BBB5D6D4E1DBD2E7A9
:104A3800D8DBE3E2DAD0D8CA717A8B78C2C6F0E163
:104A4800C2A7695B4D357ABF609290634B003E28E0
:104A580000552189421B3C36665A8777AE8DAF6B6D
:104A680053633454534C6F9C98A4A9D5BABDCCCD8C
:104A7800D1899187AAA3A5BF818D8EC0A38C7164AB
:104A8800968C6A70739EAA8A99A8CDCBD8D3DBDF9F
:104A9800D3CDD0DFCFB4A5A7BCC1A9B7C3CFE5BFDD
:104AA800C3A390AEB08A82ACC0B4C0A4C0E3D3E5BF
:104AB800B0CE81957185D9A8B7C0E7DBC3B6BDB7BD
:104AC800CFCCD3B5BDA094A795A6ACD5E0EDDEE4D8
:104AD800F3FBFEEAEAE5DAEDEDC7B4C7CBE4D9C4E7
:104AE800DDDAFAE2EFD0B3CFBFDEEDE8E7F2E6F8C1
:104AF800EAE7E0E0CCB9B5A7F1EFD5D6DBD7E9CC4A
:104B0800CCDFD4D5CFE0EDFAFBFAE7F8F8F8EEEA17
:104B1800ECDCE0F3F0E8E5E0F1D3D6D9CEB7BFEDB1
:104B2800EEF8E8EDF3EAE5D2CED1D1E0DCD6C09AD2
:104B3800997C85A2A9A4A19A93C7A8B0D6C6EFF27A
:104B4800CEDDD3B8D7AF9DA7B4C1A18D88735968FE
:104B580060625E5C81937A48518A6A5459516563F0
:104B68007C8790A4988E9EA392B2CDBAC2CBD8DB94
:104B7800BEC1C2C8BC9C8A829296BFC5B4CFE0DDD4
:104B8800CBBFB99B727B667580555A7CBECCB4B9D5
:104B9800C5E1E1CEBA9694B3AC9C918990B0E0CFD0
:104BA800D7BC9DB5AAB0C2CDA2776A86A8B1BFC14D
:104BB800AFA4A9B8BEC2CACDC3B5AFC2D4D3C6BB11
:104BC800D5CCA5B4EBF7E4D4AE8385798CB1B6B374
:104BD800B4B7BADBCBBBCBBCA1899D938FDDD8C959
:104BE800BFD9EFE8F2FAF7E7F1F1F1F5D78998D9EB
:104BF800D9D5E1DCE6D0C4C8CCBDBFBB8168728121
:104C08008A8AA3C8A9B5C7D19B92CCB6C3EDEFE4F5
:104C1800F0EFDDDAEFDBEDEFD2C394877A9EC5D2F1
:104C2800CDC1E6E1D6B6A0A491878BA282788D8CFF
:104C3800A8ABB49B908C949FBFD0AEE4D0A8AF979C
:104C480080C1DAB5B9B6AEBCB8A2B5A0889EBE9E82
:104C5800786D6C7F768AA79592A8A6847B8C9188BC
:104C68008C896F7A8C685B62677B7BA19D848B855E
:104C7800665D7658468076627D6E6E82856F77585F
:104C88007F787187747046828393AF9D9B8D90A5C2
:104C980099A08E68749A9B7C50606D397069766EA5
:104CA8007D8B635E60475B6B3364613E758B689A8E
:104CB8009598A4ABB9B7BB999B8A8E92AA8C7D9420
:104CC8009FA1ACB9A1AA988B939D9A8C8E948F863C
:104CD8009B907A927FAEC2B1D4CAD8EDEFD0BDAA6C
:104CE800D0D3A6A2B1A08BB6BCAEA68E76BBB2A717
:104CF800ACACC6A3ADB7C6C2D6C7C1CDCDD8A98DF9
:104D0800AAAC749AC2D1B9A9C4A9CBB19FAD98C0B5
:104D1800A3AAB88A96A6C2CDD7CFD4D2D4D8D3E680
:104D2800D2BF8BBACBA7A9D1E3BDB5BDE4CAC3BB7B
:104D3800B5D5CCAEE1B99EBF98A2ACBBAEB88E8B50
:104D48009793B4BDBCB2A2C5CEB0D5AEB4C7BEBCF5
:104D5800A88B8E94898B8F8388C3785E626D835706
:104D6800535960566464737D838C92967373757718
:104D78007397AAABBA8F729687869C5D4A5D674D1A
:104D8800735C5C8C8883707B9EB99C95A7A963969D
:104D9800A89F6E4B5D3D28174E5C585A7A749291C5
:104DA8008EA8C47C696E4D573A5E59926F858B7098
:104DB8007773886B726E6A5E715C4C4B645987724C
:104DC8003F63576960657A9A916B768179627A84D4
:104DD8004158676B7974798394ADBF9E8986A9B071
:104DE80099A7AB7C7A896E7878829BAEAF969B8EBA
:104DF8009CABA397868385929AA79CB5A9A5B1B6C3
:104E0800B3A9C9A97C7D8A708174657E727B85741B
:104E180091735E7C59726A52414A79727D908F987B
:104E280098868B90798997828D89797E7D8E969DDB
:104E38008D7889818C857E8E8981888689AA81680A
:104E4800787F9B7893996755477173486085645B51
:104E5800756C708D95C2A58A716C857F877BA19DC5
:104E6800A6BEB3A29BA7A79383778978605C5D678A
:104E78005A5F6F8A8282616E737A766676749094CE
:104E88008E99937C797B705379655F71887E687899
:104E9800657782743D5862314E39474924577367A4
:104EA80073987B707A7989845E4C4C57747A7879D8
:104EB800756B52343E373F362F323E3F505F6E7A25
:104EC8007E887775706C6D705F5D5C5F51636A8515
:104ED80081858289AB7EA494827E8477585B47540F
:104EE8006567695869756F7D7F878EA0AECBBCA05A
:104EF800A8B6C4BA998D7A7A7A6273734B5D628266
:104F0800A46C80768AA76F7C816073ABA994A39305
:104F18007C78A4B7947A8F9C8099A47B7E8E8E8CA3
:104F28007CA2784C5251503F484E52425E6C737886
:104F3800627B78A3C391A48E767A78948795B3839D
:104F480065503B456D8071776D614F876F51835B0D
:104F58005362707A7F8A72637FA0A5A79F8A9EA1F9
:104F680093919097939DA074697152647E6D726B52
:104F780045404F566045241C3B5E5532285B797C82
:104F88007D58395A736453443D5278886F3B3A5F71
:104F9800451F3D4D675E6EA19972566D82775E44DE
:104FA8005C7B5A5A4E4D60604F4D3D0B2A51283359
:104FB800744C4A8192856249445777745F525C7990
:104FC8005F5C745B527A8272727D9875717A50391F
:104FD8004070576180524A3D27396370483F615499
:104FE8005B8264505071837C9096A7968A9BA688B2
:104FF8007975707D7B857F838F7355645B62656788
:1050080085805F4C696C8DAEA57C72A0876A666EE0
:10501800776D784E3B524E5E66586A907769676145
:1050280056517888978654698481928D8D8F837BB9
:105038007B6A594A6AA396958476909E968F7C8857
:10504800A6A6A998736A64669B9B8D795C615A6A67
:10505800675069785D769176787A665C6470679354
:10506800A5888D7666757366746C606D4E4D616249
:105078008D9D86624560788B8465756C494B6A8D19
:105088007F7A6C4950606F87A38C606766669091E1
:10509800896E5B644E5157575971675C6C6B6C6ACB
:1050A8007D664E57728B91692D3D424D5F727143FB
:1050B8005961585C69756052372F495B6A57424E8F
:1050C8003C3B515C52465C615C4C44486271778C55
:1050D8007D736F8C987F6066654D695C4139436369
:1050E8007D82665D5F505F52546E53637174797E42
:1050F8008384817B6A708D818985887D6A838E87A8
:105108007B767975778195979EBDBEB485686D70FD
:10511800795D395A617571585A505D3947586871C7
:10512800726D6C6E567067546466637975705C5DF9
:105138005E515A64707B837F80727A635555717FA4
:105148007F8961474A66838D9399725C597083762B
:10515800625B5C6281828F7959635C5558617280A9
:10516800876D6A67565D6B68618980767972797632
:1051780081847373706F8393978976525762563E12
:10518800464B34324C7F7E7C614748494450758594
:105198008F7B728EB3AAA49D71717A7A625F7784CD
:1051A800726358496E7164546176797774837F8429
:1051B800919F867B775C687F7A7980583C42567FDE
:1051C80088787170706F8B886D747F7867646C7A7B
:1051D800868D90979DA6A39B8B8488756A71746C45
:1051E800606471715B4C555C62545E67707A675994
:1051F800565741414B58717964645A5A656B7D69B9
:105208006E67545D68636D6847546B66677F83811A
:105218006D59596360595743475A61565B6D777E9C
:10522800736464676461626B6860697186897C6FA6
:10523800708293A9AEA89F9689839A9C989975695C
:105248007B80727786858A847B7E8F938F94A6A8CD
:10525800929B9F98928685838388837E808B918793
:1052680082848786908D8991A1AC9992939595991E
:105278008C7579817C74625055595D5A4F4643420A
:105288004A616772755D565751555C615C59606833
:1052980072665D626167696B7884817379715A5A45
:1052A8005C4E4D5E624D3D393B4758595E8088845F
:1052B8006B5C5C5A70767B69524D526079867E7A57
:1052C8007A80888584908E887B787E7A75738081D1
:1052D80075756C696A6B7C8882847C625954647DBC
:1052E80080755F5D7772616F756F5C4E5865677426
:1052F800787074534E74776966544A6D8B8C8587C1
:105308008A8363598DA8A097836B6E85747D969464
:105318008576655D6768766F5F6457444C534D4F7B
:1053280052596D6B5A5A5A575C666664595870825E
:105338007D757A7A70616A748286664B50505267BE
:10534800645A627171737F8280706565737B746E55
:10535800666F736469728B96908674726D7F7F70C6
:105368007D8D999C8C766C727C7F858D877D8684FB
:105378007170747C867F7D76787F807D7C7A74847A
:105388008581797A88848C8C8A918B9598796F7BC2
:1053980076706E656A74757D7A799493787F776094
:1053A8006978675A727469727A696166657C6E4851
:1053B800577077737A797F8D9682707D716F6F7170
:1053C8006D6D7378837D7A72616D8376767B6F6B92
:1053D8006055585C5D5B5F6B57536861657A888E72
:1053E80088818183777375797D778289847B756AF3
:1053F8006F7A777D7A6B6C706B747A7C796C697074
:105408006C645654615C5A6073827F736D738A82D0
:10541800645F65645F6464666B75778089929A845B
:1054280079746D7071737B756F655A61777C72776B
:105438007670768080878D959C8F796F7A83847A51
:10544800707074727A6F5D768A928A756A6469720E
:1054580075778173636557576E7D7C7464585B708C
:105468008998816B665B5F6A72737366635E657544
:10547800777E6F686362646A6D70675B6462707878
:105488006B6B706E6C7580715E55505357636C7A98
:10549800766A686B6B666870788481746D708893BF
:1054A8008D8D877B71747873747C7D767576787E44
:1054B800828985888B808082848B878781777685AF
:1054C8008E898C8786848288888682868674737C97
:1054D8007A7A75829083706D6E706E6662626C7592
:1054E800686D71646D7174777F81838076756E875E
:1054F8008D7E777F7D7D89867E6D6D6C7B888786C6
:105508007A756E696871828478707377808B80741D
:1055180079818179726C63646D767D807A807E751D
:105528006C6B6F6C6F6C6F7574707D78727B747850
:1055380078736560626C6F69696768747B6A666CAA
:105548007B7F75696E797984796F6B6D7A838881D1
:10555800766C5D5E7885828385837D757D8C949974
:1055680094928A7D7E8082807D7D7163667382825B
:105578007C827E7569667072777C7D849190858760
:10558800938D8083897D6D6E73747D8A928A7E7314
:105598006F686576796E6D757874717680898376B3
:1055A80071717071777A7E7A7E84817E7371756B82
:1055B80062626C777F827C8287817C787776757669
:1055C800726F70726E787D726D70716D655D6571E8
:1055D800717275777C7F7F7E888C8D897E787F88D5
:1055E80087877D81848079737678807B73766B6A10
:1055F8007584887E7D78797E77767973717B8277FA
:105608007A7B726A737A787E7F8582726360677547
:10561800756F695A5A5C62727771656877747075CC
:1056280079756D6A6A676A757879787071787B853B
:105638008284857E7D7D7E7D7E746D6B6A6F6E6FE4
:10564800706C76858789857B777477787B8184878A
:10565800847A838E8F8C8684777C8986847E7F8407
:105668008180827E7F87837E7E878C8C8C868F8CE0
:105678008A908A8A908D8B8B7E6F656B7B80776F23
:105688006C6C67616066787C7876757674767B7901
:10569800777C7872798081817C797471787A737477
:1056A8007672747C796164797877777B7D766F70B0
:1056B800726F70747B7F8391958B848683869490B8
:1056C80088848289908D8C91968C7F7D7572717695
:1056D80078727578787479817C7C81878A827E7FFC
:1056E8008287868B8B878E8A8785817C7373766F9A
:1056F8006C70726F747B777474736D65696E6F6F9D
:105708006E7073797D7D7C7B7976767E85868887D9
:10571800828281807E7C807F8084847E75787B7F96
:105728007D7471767B7973716C6A6C6D72726F7847
:105738007B7774737574727171747E8582787171F8
:1057480073706C6C73787B81838686847E7B7777B5
:105758007E7E8184847E798794908C9091867C82E9
:105768008481898F8C888783777274777A726D7158
:105778007576777977797D8187817972717171779B
:105788007F878A88827C7670727679757678798256
:10579800847E7A7774727273757A7A7878766F7095
:1057A800757C7C797E79777878726C6F757D83816A
:1057B8007F7B77756D6D74787471716A605B636BEC
:1057C8006D6E747B7A787271777C7A78736E727387
:1057D8006D6463676E716E7072716B656562646724
:1057E8006667697075737474787B7B7C78777A8365
:1057F80085868788867F7E7D80858786807976788E
:1058080077706D706D6E716E6C6767696E737376A5
:1058180078777A797678797C7A7677797C7E7F82E0
:1058280083817F7C7B797C7E7A797F817E80848688
:105838008986807C7B82838282837E7B7C7B777374
:10584800757675797D7C7872727475797A7D878BB7
:105858008779727678726D747F838482868983876C
:105868008A8782797C7775777476737476797A7B90
:105878007A77737171726E655E61686B4C495354C7
:105888002E000000494E464F49534654220000005E
:105898004C61766636312E372E31303020286C69CF
:1058A80062736E6466696C652D312E302E33312932
:1058B8000000696433202A000000494433030000D3
:1058C80000000020545858580000001600000053EB
:1058D8006F667477617265004C61766636312E3773
:1058E8002E31303052494646B23C000057415645A9
:1058F800666D74201000000001000100803E000069
:10590800803E00000100080064617461633C00008F
:105918008080807E7E7E7F7E7F7E7F7E7F7E7E7E95
:105928007E7F7E7E7E7E7E7F7E7F7F7F7F80808182
:105938008180807E7F7D7E7D7E7E7E7F7F7F7E7E76
:105948007D7D7C7B7B7B7C7D7D7E7E7D7C7C7C7B8A
:105958007C7C7E7C7C7B7B7C7A7C7A7C797B7A7B8A
:105968007B7A7C797B7A7A7A797979797979797994
:10597800797879797879787878787878787778779D
:1059880077777677777878797878777776767575A0
:1059980075757675767576747575757575767475AD
:1059A800747575757576767777787777777777778B
:1059B8007878787879797A7A7A7B7B7C7C7C7D7C3C
:1059C8007D7C7E7D7E7D7D7F7D7F7D807E7E7E7DF4
:1059D8007E7C7E7D7F7F7F7F7E7E7D7C7D7C7C7BE9
:1059E8007B7C7C7D7D7D7E7D7E7D7E7E7E7E7F7FD9
:1059F8007F7F7E7F7E7E7D7D7D7D7C7D7C7D7D7DC8
:105A08007D7E7E7D7E7D7E7C7D7D7E7E7D7E7D7EB7
:105A18007D7E7E7F7F7F7F7E7E7D7D7D7C7C7C7BA7
:105A28007C7B7C7C7C7B7C7C7C7C7B7C7A7C7A7DB4
:105A38007B7C7C7C7D7C7E7D7F7D7F7D7E7E7F8088
:105A4800808080807F80808180818182828383833F
:105A580083838484848485848785878686858585F1
:105A6800838482838282828281828182818281810F
:105A7800807F807F807F7F7F8080807F7F7F7F7F28
:105A88007F807F807E7F7D7E7D7C7C7B7C7B7B7C3A
:105A98007A7B7A7A7A7B7B7B7B7A79797978787961
:105AA800797A7A7A7A7B7B7A7B7B7B7B7C7C7D7D3F
:105AB8007D7D7E7F80807F7F7F7F7F8080808081EB
:105AC80080818081808081808180818082808180C6
